{
  "_format": "hh-sol-artifact-1",
  "contractName": "NFTCollection",
  "sourceName": "contracts/NFTCollection.sol",
  "abi": [
    {
      "inputs": [
        {
          "internalType": "string",
          "name": "name",
          "type": "string"
        },
        {
          "internalType": "string",
          "name": "symbol",
          "type": "string"
        }
      ],
      "stateMutability": "nonpayable",
      "type": "constructor"
    },
    {
      "anonymous": false,
      "inputs": [
        {
          "indexed": true,
          "internalType": "address",
          "name": "owner",
          "type": "address"
        },
        {
          "indexed": true,
          "internalType": "address",
          "name": "approved",
          "type": "address"
        },
        {
          "indexed": true,
          "internalType": "uint256",
          "name": "tokenId",
          "type": "uint256"
        }
      ],
      "name": "Approval",
      "type": "event"
    },
    {
      "anonymous": false,
      "inputs": [
        {
          "indexed": true,
          "internalType": "address",
          "name": "owner",
          "type": "address"
        },
        {
          "indexed": true,
          "internalType": "address",
          "name": "operator",
          "type": "address"
        },
        {
          "indexed": false,
          "internalType": "bool",
          "name": "approved",
          "type": "bool"
        }
      ],
      "name": "ApprovalForAll",
      "type": "event"
    },
    {
      "anonymous": false,
      "inputs": [
        {
          "indexed": false,
          "internalType": "uint256",
          "name": "_fromTokenId",
          "type": "uint256"
        },
        {
          "indexed": false,
          "internalType": "uint256",
          "name": "_toTokenId",
          "type": "uint256"
        }
      ],
      "name": "BatchMetadataUpdate",
      "type": "event"
    },
    {
      "anonymous": false,
      "inputs": [
        {
          "indexed": false,
          "internalType": "uint256",
          "name": "_tokenId",
          "type": "uint256"
        }
      ],
      "name": "MetadataUpdate",
      "type": "event"
    },
    {
      "anonymous": false,
      "inputs": [
        {
          "indexed": true,
          "internalType": "address",
          "name": "previousOwner",
          "type": "address"
        },
        {
          "indexed": true,
          "internalType": "address",
          "name": "newOwner",
          "type": "address"
        }
      ],
      "name": "OwnershipTransferred",
      "type": "event"
    },
    {
      "anonymous": false,
      "inputs": [
        {
          "indexed": true,
          "internalType": "address",
          "name": "from",
          "type": "address"
        },
        {
          "indexed": true,
          "internalType": "address",
          "name": "to",
          "type": "address"
        },
        {
          "indexed": true,
          "internalType": "uint256",
          "name": "tokenId",
          "type": "uint256"
        }
      ],
      "name": "Transfer",
      "type": "event"
    },
    {
      "inputs": [],
      "name": "_contractURI",
      "outputs": [
        {
          "internalType": "string",
          "name": "",
          "type": "string"
        }
      ],
      "stateMutability": "view",
      "type": "function"
    },
    {
      "inputs": [
        {
          "internalType": "address",
          "name": "to",
          "type": "address"
        },
        {
          "internalType": "uint256",
          "name": "tokenId",
          "type": "uint256"
        }
      ],
      "name": "approve",
      "outputs": [],
      "stateMutability": "nonpayable",
      "type": "function"
    },
    {
      "inputs": [
        {
          "internalType": "address",
          "name": "owner",
          "type": "address"
        }
      ],
      "name": "balanceOf",
      "outputs": [
        {
          "internalType": "uint256",
          "name": "",
          "type": "uint256"
        }
      ],
      "stateMutability": "view",
      "type": "function"
    },
    {
      "inputs": [],
      "name": "contractURI",
      "outputs": [
        {
          "internalType": "string",
          "name": "",
          "type": "string"
        }
      ],
      "stateMutability": "view",
      "type": "function"
    },
    {
      "inputs": [
        {
          "internalType": "uint256",
          "name": "tokenId",
          "type": "uint256"
        }
      ],
      "name": "getApproved",
      "outputs": [
        {
          "internalType": "address",
          "name": "",
          "type": "address"
        }
      ],
      "stateMutability": "view",
      "type": "function"
    },
    {
      "inputs": [
        {
          "internalType": "address",
          "name": "owner",
          "type": "address"
        },
        {
          "internalType": "address",
          "name": "operator",
          "type": "address"
        }
      ],
      "name": "isApprovedForAll",
      "outputs": [
        {
          "internalType": "bool",
          "name": "",
          "type": "bool"
        }
      ],
      "stateMutability": "view",
      "type": "function"
    },
    {
      "inputs": [
        {
          "internalType": "address",
          "name": "recipient",
          "type": "address"
        },
        {
          "internalType": "string",
          "name": "tokenURI",
          "type": "string"
        }
      ],
      "name": "mintNFT",
      "outputs": [
        {
          "internalType": "uint256",
          "name": "",
          "type": "uint256"
        }
      ],
      "stateMutability": "nonpayable",
      "type": "function"
    },
    {
      "inputs": [],
      "name": "name",
      "outputs": [
        {
          "internalType": "string",
          "name": "",
          "type": "string"
        }
      ],
      "stateMutability": "view",
      "type": "function"
    },
    {
      "inputs": [],
      "name": "owner",
      "outputs": [
        {
          "internalType": "address",
          "name": "",
          "type": "address"
        }
      ],
      "stateMutability": "view",
      "type": "function"
    },
    {
      "inputs": [
        {
          "internalType": "uint256",
          "name": "tokenId",
          "type": "uint256"
        }
      ],
      "name": "ownerOf",
      "outputs": [
        {
          "internalType": "address",
          "name": "",
          "type": "address"
        }
      ],
      "stateMutability": "view",
      "type": "function"
    },
    {
      "inputs": [],
      "name": "renounceOwnership",
      "outputs": [],
      "stateMutability": "nonpayable",
      "type": "function"
    },
    {
      "inputs": [
        {
          "internalType": "address",
          "name": "from",
          "type": "address"
        },
        {
          "internalType": "address",
          "name": "to",
          "type": "address"
        },
        {
          "internalType": "uint256",
          "name": "tokenId",
          "type": "uint256"
        }
      ],
      "name": "safeTransferFrom",
      "outputs": [],
      "stateMutability": "nonpayable",
      "type": "function"
    },
    {
      "inputs": [
        {
          "internalType": "address",
          "name": "from",
          "type": "address"
        },
        {
          "internalType": "address",
          "name": "to",
          "type": "address"
        },
        {
          "internalType": "uint256",
          "name": "tokenId",
          "type": "uint256"
        },
        {
          "internalType": "bytes",
          "name": "data",
          "type": "bytes"
        }
      ],
      "name": "safeTransferFrom",
      "outputs": [],
      "stateMutability": "nonpayable",
      "type": "function"
    },
    {
      "inputs": [
        {
          "internalType": "address",
          "name": "operator",
          "type": "address"
        },
        {
          "internalType": "bool",
          "name": "approved",
          "type": "bool"
        }
      ],
      "name": "setApprovalForAll",
      "outputs": [],
      "stateMutability": "nonpayable",
      "type": "function"
    },
    {
      "inputs": [
        {
          "internalType": "string",
          "name": "contractURI_",
          "type": "string"
        }
      ],
      "name": "setContractURI",
      "outputs": [],
      "stateMutability": "nonpayable",
      "type": "function"
    },
    {
      "inputs": [
        {
          "internalType": "bytes4",
          "name": "interfaceId",
          "type": "bytes4"
        }
      ],
      "name": "supportsInterface",
      "outputs": [
        {
          "internalType": "bool",
          "name": "",
          "type": "bool"
        }
      ],
      "stateMutability": "view",
      "type": "function"
    },
    {
      "inputs": [],
      "name": "symbol",
      "outputs": [
        {
          "internalType": "string",
          "name": "",
          "type": "string"
        }
      ],
      "stateMutability": "view",
      "type": "function"
    },
    {
      "inputs": [],
      "name": "tokenId",
      "outputs": [
        {
          "internalType": "uint256",
          "name": "_value",
          "type": "uint256"
        }
      ],
      "stateMutability": "view",
      "type": "function"
    },
    {
      "inputs": [
        {
          "internalType": "uint256",
          "name": "tokenId",
          "type": "uint256"
        }
      ],
      "name": "tokenURI",
      "outputs": [
        {
          "internalType": "string",
          "name": "",
          "type": "string"
        }
      ],
      "stateMutability": "view",
      "type": "function"
    },
    {
      "inputs": [
        {
          "internalType": "address",
          "name": "from",
          "type": "address"
        },
        {
          "internalType": "address",
          "name": "to",
          "type": "address"
        },
        {
          "internalType": "uint256",
          "name": "tokenId",
          "type": "uint256"
        }
      ],
      "name": "transferFrom",
      "outputs": [],
      "stateMutability": "nonpayable",
      "type": "function"
    },
    {
      "inputs": [
        {
          "internalType": "address",
          "name": "newOwner",
          "type": "address"
        }
      ],
      "name": "transferOwnership",
      "outputs": [],
      "stateMutability": "nonpayable",
      "type": "function"
    }
  ],
  "bytecode": "0x60806040523480156200001157600080fd5b5060405162003731380380620037318339818101604052810190620000379190620002e8565b818181600090816200004a9190620005b8565b5080600190816200005c9190620005b8565b5050506200007f620000736200008760201b60201c565b6200008f60201b60201c565b50506200069f565b600033905090565b6000600760009054906101000a900473ffffffffffffffffffffffffffffffffffffffff16905081600760006101000a81548173ffffffffffffffffffffffffffffffffffffffff021916908373ffffffffffffffffffffffffffffffffffffffff1602179055508173ffffffffffffffffffffffffffffffffffffffff168173ffffffffffffffffffffffffffffffffffffffff167f8be0079c531659141344cd1fd0a4f28419497f9722a3daafe3b4186f6b6457e060405160405180910390a35050565b6000604051905090565b600080fd5b600080fd5b600080fd5b600080fd5b6000601f19601f8301169050919050565b7f4e487b7100000000000000000000000000000000000000000000000000000000600052604160045260246000fd5b620001be8262000173565b810181811067ffffffffffffffff82111715620001e057620001df62000184565b5b80604052505050565b6000620001f562000155565b9050620002038282620001b3565b919050565b600067ffffffffffffffff82111562000226576200022562000184565b5b620002318262000173565b9050602081019050919050565b60005b838110156200025e57808201518184015260208101905062000241565b60008484015250505050565b6000620002816200027b8462000208565b620001e9565b905082815260208101848484011115620002a0576200029f6200016e565b5b620002ad8482856200023e565b509392505050565b600082601f830112620002cd57620002cc62000169565b5b8151620002df8482602086016200026a565b91505092915050565b600080604083850312156200030257620003016200015f565b5b600083015167ffffffffffffffff81111562000323576200032262000164565b5b6200033185828601620002b5565b925050602083015167ffffffffffffffff81111562000355576200035462000164565b5b6200036385828601620002b5565b9150509250929050565b600081519050919050565b7f4e487b7100000000000000000000000000000000000000000000000000000000600052602260045260246000fd5b60006002820490506001821680620003c057607f821691505b602082108103620003d657620003d562000378565b5b50919050565b60008190508160005260206000209050919050565b60006020601f8301049050919050565b600082821b905092915050565b600060088302620004407fffffffffffffffffffffffffffffffffffffffffffffffffffffffffffffffff8262000401565b6200044c868362000401565b95508019841693508086168417925050509392505050565b6000819050919050565b6000819050919050565b600062000499620004936200048d8462000464565b6200046e565b62000464565b9050919050565b6000819050919050565b620004b58362000478565b620004cd620004c482620004a0565b8484546200040e565b825550505050565b600090565b620004e4620004d5565b620004f1818484620004aa565b505050565b5b8181101562000519576200050d600082620004da565b600181019050620004f7565b5050565b601f82111562000568576200053281620003dc565b6200053d84620003f1565b810160208510156200054d578190505b620005656200055c85620003f1565b830182620004f6565b50505b505050565b600082821c905092915050565b60006200058d600019846008026200056d565b1980831691505092915050565b6000620005a883836200057a565b9150826002028217905092915050565b620005c3826200036d565b67ffffffffffffffff811115620005df57620005de62000184565b5b620005eb8254620003a7565b620005f88282856200051d565b600060209050601f8311600181146200063057600084156200061b578287015190505b6200062785826200059a565b86555062000697565b601f1984166200064086620003dc565b60005b828110156200066a5784890151825560018201915060208501945060208101905062000643565b868310156200068a578489015162000686601f8916826200057a565b8355505b6001600288020188555050505b505050505050565b61308280620006af6000396000f3fe608060405234801561001057600080fd5b50600436106101375760003560e01c80638da5cb5b116100b8578063c0e727401161007c578063c0e7274014610326578063c87b56dd14610344578063e8a3d48514610374578063e985e9c514610392578063eacabe14146103c2578063f2fde38b146103f257610137565b80638da5cb5b14610296578063938e3d7b146102b457806395d89b41146102d0578063a22cb465146102ee578063b88d4fde1461030a57610137565b806323b872dd116100ff57806323b872dd146101f457806342842e0e146102105780636352211e1461022c57806370a082311461025c578063715018a61461028c57610137565b806301ffc9a71461013c57806306fdde031461016c578063081812fc1461018a578063095ea7b3146101ba57806317d70f7c146101d6575b600080fd5b61015660048036038101906101519190611e2a565b61040e565b6040516101639190611e72565b60405180910390f35b61017461046f565b6040516101819190611f1d565b60405180910390f35b6101a4600480360381019061019f9190611f75565b610501565b6040516101b19190611fe3565b60405180910390f35b6101d460048036038101906101cf919061202a565b610547565b005b6101de61065e565b6040516101eb9190612079565b60405180910390f35b61020e60048036038101906102099190612094565b61066a565b005b61022a60048036038101906102259190612094565b6106ca565b005b61024660048036038101906102419190611f75565b6106ea565b6040516102539190611fe3565b60405180910390f35b610276600480360381019061027191906120e7565b610770565b6040516102839190612079565b60405180910390f35b610294610827565b005b61029e61083b565b6040516102ab9190611fe3565b60405180910390f35b6102ce60048036038101906102c99190612249565b610865565b005b6102d8610880565b6040516102e59190611f1d565b60405180910390f35b610308600480360381019061030391906122be565b610912565b005b610324600480360381019061031f919061239f565b610928565b005b61032e61098a565b60405161033b9190611f1d565b60405180910390f35b61035e60048036038101906103599190611f75565b610a18565b60405161036b9190611f1d565b60405180910390f35b61037c610b2a565b6040516103899190611f1d565b60405180910390f35b6103ac60048036038101906103a79190612422565b610bbc565b6040516103b99190611e72565b60405180910390f35b6103dc60048036038101906103d79190612462565b610c50565b6040516103e99190612079565b60405180910390f35b61040c600480360381019061040791906120e7565b610c90565b005b6000634906490660e01b7bffffffffffffffffffffffffffffffffffffffffffffffffffffffff1916827bffffffffffffffffffffffffffffffffffffffffffffffffffffffff19161480610468575061046782610d13565b5b9050919050565b60606000805461047e906124ed565b80601f01602080910402602001604051908101604052809291908181526020018280546104aa906124ed565b80156104f75780601f106104cc576101008083540402835291602001916104f7565b820191906000526020600020905b8154815290600101906020018083116104da57829003601f168201915b5050505050905090565b600061050c82610df5565b6004600083815260200190815260200160002060009054906101000a900473ffffffffffffffffffffffffffffffffffffffff169050919050565b6000610552826106ea565b90508073ffffffffffffffffffffffffffffffffffffffff168373ffffffffffffffffffffffffffffffffffffffff16036105c2576040517f08c379a00000000000000000000000000000000000000000000000000000000081526004016105b990612590565b60405180910390fd5b8073ffffffffffffffffffffffffffffffffffffffff166105e1610e40565b73ffffffffffffffffffffffffffffffffffffffff161480610610575061060f8161060a610e40565b610bbc565b5b61064f576040517f08c379a000000000000000000000000000000000000000000000000000000000815260040161064690612622565b60405180910390fd5b6106598383610e48565b505050565b60088060000154905081565b61067b610675610e40565b82610f01565b6106ba576040517f08c379a00000000000000000000000000000000000000000000000000000000081526004016106b1906126b4565b60405180910390fd5b6106c5838383610f96565b505050565b6106e583838360405180602001604052806000815250610928565b505050565b6000806106f68361128f565b9050600073ffffffffffffffffffffffffffffffffffffffff168173ffffffffffffffffffffffffffffffffffffffff1603610767576040517f08c379a000000000000000000000000000000000000000000000000000000000815260040161075e90612720565b60405180910390fd5b80915050919050565b60008073ffffffffffffffffffffffffffffffffffffffff168273ffffffffffffffffffffffffffffffffffffffff16036107e0576040517f08c379a00000000000000000000000000000000000000000000000000000000081526004016107d7906127b2565b60405180910390fd5b600360008373ffffffffffffffffffffffffffffffffffffffff1673ffffffffffffffffffffffffffffffffffffffff168152602001908152602001600020549050919050565b61082f6112cc565b610839600061134a565b565b6000600760009054906101000a900473ffffffffffffffffffffffffffffffffffffffff16905090565b61086d6112cc565b806009908161087c919061297e565b5050565b60606001805461088f906124ed565b80601f01602080910402602001604051908101604052809291908181526020018280546108bb906124ed565b80156109085780601f106108dd57610100808354040283529160200191610908565b820191906000526020600020905b8154815290600101906020018083116108eb57829003601f168201915b5050505050905090565b61092461091d610e40565b8383611410565b5050565b610939610933610e40565b83610f01565b610978576040517f08c379a000000000000000000000000000000000000000000000000000000000815260040161096f906126b4565b60405180910390fd5b6109848484848461157c565b50505050565b60098054610997906124ed565b80601f01602080910402602001604051908101604052809291908181526020018280546109c3906124ed565b8015610a105780601f106109e557610100808354040283529160200191610a10565b820191906000526020600020905b8154815290600101906020018083116109f357829003601f168201915b505050505081565b6060610a2382610df5565b6000600660008481526020019081526020016000208054610a43906124ed565b80601f0160208091040260200160405190810160405280929190818152602001828054610a6f906124ed565b8015610abc5780601f10610a9157610100808354040283529160200191610abc565b820191906000526020600020905b815481529060010190602001808311610a9f57829003601f168201915b505050505090506000610acd6115d8565b90506000815103610ae2578192505050610b25565b600082511115610b17578082604051602001610aff929190612a8c565b60405160208183030381529060405292505050610b25565b610b20846115ef565b925050505b919050565b606060098054610b39906124ed565b80601f0160208091040260200160405190810160405280929190818152602001828054610b65906124ed565b8015610bb25780601f10610b8757610100808354040283529160200191610bb2565b820191906000526020600020905b815481529060010190602001808311610b9557829003601f168201915b5050505050905090565b6000600560008473ffffffffffffffffffffffffffffffffffffffff1673ffffffffffffffffffffffffffffffffffffffff16815260200190815260200160002060008373ffffffffffffffffffffffffffffffffffffffff1673ffffffffffffffffffffffffffffffffffffffff16815260200190815260200160002060009054906101000a900460ff16905092915050565b6000610c5a6112cc565b6000610c666008611657565b9050610c726008611665565b610c7c848261167b565b610c868184611898565b8091505092915050565b610c986112cc565b600073ffffffffffffffffffffffffffffffffffffffff168173ffffffffffffffffffffffffffffffffffffffff1603610d07576040517f08c379a0000000000000000000000000000000000000000000000000000000008152600401610cfe90612b22565b60405180910390fd5b610d108161134a565b50565b60007f80ac58cd000000000000000000000000000000000000000000000000000000007bffffffffffffffffffffffffffffffffffffffffffffffffffffffff1916827bffffffffffffffffffffffffffffffffffffffffffffffffffffffff19161480610dde57507f5b5e139f000000000000000000000000000000000000000000000000000000007bffffffffffffffffffffffffffffffffffffffffffffffffffffffff1916827bffffffffffffffffffffffffffffffffffffffffffffffffffffffff1916145b80610dee5750610ded8261193c565b5b9050919050565b610dfe816119a6565b610e3d576040517f08c379a0000000000000000000000000000000000000000000000000000000008152600401610e3490612720565b60405180910390fd5b50565b600033905090565b816004600083815260200190815260200160002060006101000a81548173ffffffffffffffffffffffffffffffffffffffff021916908373ffffffffffffffffffffffffffffffffffffffff160217905550808273ffffffffffffffffffffffffffffffffffffffff16610ebb836106ea565b73ffffffffffffffffffffffffffffffffffffffff167f8c5be1e5ebec7d5bd14f71427d1e84f3dd0314c0f7b2291e5b200ac8c7c3b92560405160405180910390a45050565b600080610f0d836106ea565b90508073ffffffffffffffffffffffffffffffffffffffff168473ffffffffffffffffffffffffffffffffffffffff161480610f4f5750610f4e8185610bbc565b5b80610f8d57508373ffffffffffffffffffffffffffffffffffffffff16610f7584610501565b73ffffffffffffffffffffffffffffffffffffffff16145b91505092915050565b8273ffffffffffffffffffffffffffffffffffffffff16610fb6826106ea565b73ffffffffffffffffffffffffffffffffffffffff161461100c576040517f08c379a000000000000000000000000000000000000000000000000000000000815260040161100390612bb4565b60405180910390fd5b600073ffffffffffffffffffffffffffffffffffffffff168273ffffffffffffffffffffffffffffffffffffffff160361107b576040517f08c379a000000000000000000000000000000000000000000000000000000000815260040161107290612c46565b60405180910390fd5b61108883838360016119e7565b8273ffffffffffffffffffffffffffffffffffffffff166110a8826106ea565b73ffffffffffffffffffffffffffffffffffffffff16146110fe576040517f08c379a00000000000000000000000000000000000000000000000000000000081526004016110f590612bb4565b60405180910390fd5b6004600082815260200190815260200160002060006101000a81549073ffffffffffffffffffffffffffffffffffffffff02191690556001600360008573ffffffffffffffffffffffffffffffffffffffff1673ffffffffffffffffffffffffffffffffffffffff168152602001908152602001600020600082825403925050819055506001600360008473ffffffffffffffffffffffffffffffffffffffff1673ffffffffffffffffffffffffffffffffffffffff16815260200190815260200160002060008282540192505081905550816002600083815260200190815260200160002060006101000a81548173ffffffffffffffffffffffffffffffffffffffff021916908373ffffffffffffffffffffffffffffffffffffffff160217905550808273ffffffffffffffffffffffffffffffffffffffff168473ffffffffffffffffffffffffffffffffffffffff167fddf252ad1be2c89b69c2b068fc378daa952ba7f163c4a11628f55a4df523b3ef60405160405180910390a461128a83838360016119ed565b505050565b60006002600083815260200190815260200160002060009054906101000a900473ffffffffffffffffffffffffffffffffffffffff169050919050565b6112d4610e40565b73ffffffffffffffffffffffffffffffffffffffff166112f261083b565b73ffffffffffffffffffffffffffffffffffffffff1614611348576040517f08c379a000000000000000000000000000000000000000000000000000000000815260040161133f90612cb2565b60405180910390fd5b565b6000600760009054906101000a900473ffffffffffffffffffffffffffffffffffffffff16905081600760006101000a81548173ffffffffffffffffffffffffffffffffffffffff021916908373ffffffffffffffffffffffffffffffffffffffff1602179055508173ffffffffffffffffffffffffffffffffffffffff168173ffffffffffffffffffffffffffffffffffffffff167f8be0079c531659141344cd1fd0a4f28419497f9722a3daafe3b4186f6b6457e060405160405180910390a35050565b8173ffffffffffffffffffffffffffffffffffffffff168373ffffffffffffffffffffffffffffffffffffffff160361147e576040517f08c379a000000000000000000000000000000000000000000000000000000000815260040161147590612d1e565b60405180910390fd5b80600560008573ffffffffffffffffffffffffffffffffffffffff1673ffffffffffffffffffffffffffffffffffffffff16815260200190815260200160002060008473ffffffffffffffffffffffffffffffffffffffff1673ffffffffffffffffffffffffffffffffffffffff16815260200190815260200160002060006101000a81548160ff0219169083151502179055508173ffffffffffffffffffffffffffffffffffffffff168373ffffffffffffffffffffffffffffffffffffffff167f17307eab39ab6107e8899845ad3d59bd9653f200f220920489ca2b5937696c318360405161156f9190611e72565b60405180910390a3505050565b611587848484610f96565b611593848484846119f3565b6115d2576040517f08c379a00000000000000000000000000000000000000000000000000000000081526004016115c990612db0565b60405180910390fd5b50505050565b606060405180602001604052806000815250905090565b60606115fa82610df5565b60006116046115d8565b90506000815111611624576040518060200160405280600081525061164f565b8061162e84611b7a565b60405160200161163f929190612a8c565b6040516020818303038152906040525b915050919050565b600081600001549050919050565b6001816000016000828254019250508190555050565b600073ffffffffffffffffffffffffffffffffffffffff168273ffffffffffffffffffffffffffffffffffffffff16036116ea576040517f08c379a00000000000000000000000000000000000000000000000000000000081526004016116e190612e1c565b60405180910390fd5b6116f3816119a6565b15611733576040517f08c379a000000000000000000000000000000000000000000000000000000000815260040161172a90612e88565b60405180910390fd5b6117416000838360016119e7565b61174a816119a6565b1561178a576040517f08c379a000000000000000000000000000000000000000000000000000000000815260040161178190612e88565b60405180910390fd5b6001600360008473ffffffffffffffffffffffffffffffffffffffff1673ffffffffffffffffffffffffffffffffffffffff16815260200190815260200160002060008282540192505081905550816002600083815260200190815260200160002060006101000a81548173ffffffffffffffffffffffffffffffffffffffff021916908373ffffffffffffffffffffffffffffffffffffffff160217905550808273ffffffffffffffffffffffffffffffffffffffff16600073ffffffffffffffffffffffffffffffffffffffff167fddf252ad1be2c89b69c2b068fc378daa952ba7f163c4a11628f55a4df523b3ef60405160405180910390a46118946000838360016119ed565b5050565b6118a1826119a6565b6118e0576040517f08c379a00000000000000000000000000000000000000000000000000000000081526004016118d790612f1a565b60405180910390fd5b80600660008481526020019081526020016000209081611900919061297e565b507ff8e1a15aba9398e019f0b49df1a4fde98ee17ae345cb5f6b5e2c27f5033e8ce7826040516119309190612079565b60405180910390a15050565b60007f01ffc9a7000000000000000000000000000000000000000000000000000000007bffffffffffffffffffffffffffffffffffffffffffffffffffffffff1916827bffffffffffffffffffffffffffffffffffffffffffffffffffffffff1916149050919050565b60008073ffffffffffffffffffffffffffffffffffffffff166119c88361128f565b73ffffffffffffffffffffffffffffffffffffffff1614159050919050565b50505050565b50505050565b6000611a148473ffffffffffffffffffffffffffffffffffffffff16611c48565b15611b6d578373ffffffffffffffffffffffffffffffffffffffff1663150b7a02611a3d610e40565b8786866040518563ffffffff1660e01b8152600401611a5f9493929190612f8f565b6020604051808303816000875af1925050508015611a9b57506040513d601f19601f82011682018060405250810190611a989190612ff0565b60015b611b1d573d8060008114611acb576040519150601f19603f3d011682016040523d82523d6000602084013e611ad0565b606091505b506000815103611b15576040517f08c379a0000000000000000000000000000000000000000000000000000000008152600401611b0c90612db0565b60405180910390fd5b805181602001fd5b63150b7a0260e01b7bffffffffffffffffffffffffffffffffffffffffffffffffffffffff1916817bffffffffffffffffffffffffffffffffffffffffffffffffffffffff191614915050611b72565b600190505b949350505050565b606060006001611b8984611c6b565b01905060008167ffffffffffffffff811115611ba857611ba761211e565b5b6040519080825280601f01601f191660200182016040528015611bda5781602001600182028036833780820191505090505b509050600082602001820190505b600115611c3d578080600190039150507f3031323334353637383961626364656600000000000000000000000000000000600a86061a8153600a8581611c3157611c3061301d565b5b04945060008503611be8575b819350505050919050565b6000808273ffffffffffffffffffffffffffffffffffffffff163b119050919050565b600080600090507a184f03e93ff9f4daa797ed6e38ed64bf6a1f0100000000000000008310611cc9577a184f03e93ff9f4daa797ed6e38ed64bf6a1f0100000000000000008381611cbf57611cbe61301d565b5b0492506040810190505b6d04ee2d6d415b85acef81000000008310611d06576d04ee2d6d415b85acef81000000008381611cfc57611cfb61301d565b5b0492506020810190505b662386f26fc100008310611d3557662386f26fc100008381611d2b57611d2a61301d565b5b0492506010810190505b6305f5e1008310611d5e576305f5e1008381611d5457611d5361301d565b5b0492506008810190505b6127108310611d83576127108381611d7957611d7861301d565b5b0492506004810190505b60648310611da65760648381611d9c57611d9b61301d565b5b0492506002810190505b600a8310611db5576001810190505b80915050919050565b6000604051905090565b600080fd5b600080fd5b60007fffffffff0000000000000000000000000000000000000000000000000000000082169050919050565b611e0781611dd2565b8114611e1257600080fd5b50565b600081359050611e2481611dfe565b92915050565b600060208284031215611e4057611e3f611dc8565b5b6000611e4e84828501611e15565b91505092915050565b60008115159050919050565b611e6c81611e57565b82525050565b6000602082019050611e876000830184611e63565b92915050565b600081519050919050565b600082825260208201905092915050565b60005b83811015611ec7578082015181840152602081019050611eac565b60008484015250505050565b6000601f19601f8301169050919050565b6000611eef82611e8d565b611ef98185611e98565b9350611f09818560208601611ea9565b611f1281611ed3565b840191505092915050565b60006020820190508181036000830152611f378184611ee4565b905092915050565b6000819050919050565b611f5281611f3f565b8114611f5d57600080fd5b50565b600081359050611f6f81611f49565b92915050565b600060208284031215611f8b57611f8a611dc8565b5b6000611f9984828501611f60565b91505092915050565b600073ffffffffffffffffffffffffffffffffffffffff82169050919050565b6000611fcd82611fa2565b9050919050565b611fdd81611fc2565b82525050565b6000602082019050611ff86000830184611fd4565b92915050565b61200781611fc2565b811461201257600080fd5b50565b60008135905061202481611ffe565b92915050565b6000806040838503121561204157612040611dc8565b5b600061204f85828601612015565b925050602061206085828601611f60565b9150509250929050565b61207381611f3f565b82525050565b600060208201905061208e600083018461206a565b92915050565b6000806000606084860312156120ad576120ac611dc8565b5b60006120bb86828701612015565b93505060206120cc86828701612015565b92505060406120dd86828701611f60565b9150509250925092565b6000602082840312156120fd576120fc611dc8565b5b600061210b84828501612015565b91505092915050565b600080fd5b600080fd5b7f4e487b7100000000000000000000000000000000000000000000000000000000600052604160045260246000fd5b61215682611ed3565b810181811067ffffffffffffffff821117156121755761217461211e565b5b80604052505050565b6000612188611dbe565b9050612194828261214d565b919050565b600067ffffffffffffffff8211156121b4576121b361211e565b5b6121bd82611ed3565b9050602081019050919050565b82818337600083830152505050565b60006121ec6121e784612199565b61217e565b90508281526020810184848401111561220857612207612119565b5b6122138482856121ca565b509392505050565b600082601f8301126122305761222f612114565b5b81356122408482602086016121d9565b91505092915050565b60006020828403121561225f5761225e611dc8565b5b600082013567ffffffffffffffff81111561227d5761227c611dcd565b5b6122898482850161221b565b91505092915050565b61229b81611e57565b81146122a657600080fd5b50565b6000813590506122b881612292565b92915050565b600080604083850312156122d5576122d4611dc8565b5b60006122e385828601612015565b92505060206122f4858286016122a9565b9150509250929050565b600067ffffffffffffffff8211156123195761231861211e565b5b61232282611ed3565b9050602081019050919050565b600061234261233d846122fe565b61217e565b90508281526020810184848401111561235e5761235d612119565b5b6123698482856121ca565b509392505050565b600082601f83011261238657612385612114565b5b813561239684826020860161232f565b91505092915050565b600080600080608085870312156123b9576123b8611dc8565b5b60006123c787828801612015565b94505060206123d887828801612015565b93505060406123e987828801611f60565b925050606085013567ffffffffffffffff81111561240a57612409611dcd565b5b61241687828801612371565b91505092959194509250565b6000806040838503121561243957612438611dc8565b5b600061244785828601612015565b925050602061245885828601612015565b9150509250929050565b6000806040838503121561247957612478611dc8565b5b600061248785828601612015565b925050602083013567ffffffffffffffff8111156124a8576124a7611dcd565b5b6124b48582860161221b565b9150509250929050565b7f4e487b7100000000000000000000000000000000000000000000000000000000600052602260045260246000fd5b6000600282049050600182168061250557607f821691505b602082108103612518576125176124be565b5b50919050565b7f4552433732313a20617070726f76616c20746f2063757272656e74206f776e6560008201527f7200000000000000000000000000000000000000000000000000000000000000602082015250565b600061257a602183611e98565b91506125858261251e565b604082019050919050565b600060208201905081810360008301526125a98161256d565b9050919050565b7f4552433732313a20617070726f76652063616c6c6572206973206e6f7420746f60008201527f6b656e206f776e6572206f7220617070726f76656420666f7220616c6c000000602082015250565b600061260c603d83611e98565b9150612617826125b0565b604082019050919050565b6000602082019050818103600083015261263b816125ff565b9050919050565b7f4552433732313a2063616c6c6572206973206e6f7420746f6b656e206f776e6560008201527f72206f7220617070726f76656400000000000000000000000000000000000000602082015250565b600061269e602d83611e98565b91506126a982612642565b604082019050919050565b600060208201905081810360008301526126cd81612691565b9050919050565b7f4552433732313a20696e76616c696420746f6b656e2049440000000000000000600082015250565b600061270a601883611e98565b9150612715826126d4565b602082019050919050565b60006020820190508181036000830152612739816126fd565b9050919050565b7f4552433732313a2061646472657373207a65726f206973206e6f74206120766160008201527f6c6964206f776e65720000000000000000000000000000000000000000000000602082015250565b600061279c602983611e98565b91506127a782612740565b604082019050919050565b600060208201905081810360008301526127cb8161278f565b9050919050565b60008190508160005260206000209050919050565b60006020601f8301049050919050565b600082821b905092915050565b6000600883026128347fffffffffffffffffffffffffffffffffffffffffffffffffffffffffffffffff826127f7565b61283e86836127f7565b95508019841693508086168417925050509392505050565b6000819050919050565b600061287b61287661287184611f3f565b612856565b611f3f565b9050919050565b6000819050919050565b61289583612860565b6128a96128a182612882565b848454612804565b825550505050565b600090565b6128be6128b1565b6128c981848461288c565b505050565b5b818110156128ed576128e26000826128b6565b6001810190506128cf565b5050565b601f82111561293257612903816127d2565b61290c846127e7565b8101602085101561291b578190505b61292f612927856127e7565b8301826128ce565b50505b505050565b600082821c905092915050565b600061295560001984600802612937565b1980831691505092915050565b600061296e8383612944565b9150826002028217905092915050565b61298782611e8d565b67ffffffffffffffff8111156129a05761299f61211e565b5b6129aa82546124ed565b6129b58282856128f1565b600060209050601f8311600181146129e857600084156129d6578287015190505b6129e08582612962565b865550612a48565b601f1984166129f6866127d2565b60005b82811015612a1e578489015182556001820191506020850194506020810190506129f9565b86831015612a3b5784890151612a37601f891682612944565b8355505b6001600288020188555050505b505050505050565b600081905092915050565b6000612a6682611e8d565b612a708185612a50565b9350612a80818560208601611ea9565b80840191505092915050565b6000612a988285612a5b565b9150612aa48284612a5b565b91508190509392505050565b7f4f776e61626c653a206e6577206f776e657220697320746865207a65726f206160008201527f6464726573730000000000000000000000000000000000000000000000000000602082015250565b6000612b0c602683611e98565b9150612b1782612ab0565b604082019050919050565b60006020820190508181036000830152612b3b81612aff565b9050919050565b7f4552433732313a207472616e736665722066726f6d20696e636f72726563742060008201527f6f776e6572000000000000000000000000000000000000000000000000000000602082015250565b6000612b9e602583611e98565b9150612ba982612b42565b604082019050919050565b60006020820190508181036000830152612bcd81612b91565b9050919050565b7f4552433732313a207472616e7366657220746f20746865207a65726f2061646460008201527f7265737300000000000000000000000000000000000000000000000000000000602082015250565b6000612c30602483611e98565b9150612c3b82612bd4565b604082019050919050565b60006020820190508181036000830152612c5f81612c23565b9050919050565b7f4f776e61626c653a2063616c6c6572206973206e6f7420746865206f776e6572600082015250565b6000612c9c602083611e98565b9150612ca782612c66565b602082019050919050565b60006020820190508181036000830152612ccb81612c8f565b9050919050565b7f4552433732313a20617070726f766520746f2063616c6c657200000000000000600082015250565b6000612d08601983611e98565b9150612d1382612cd2565b602082019050919050565b60006020820190508181036000830152612d3781612cfb565b9050919050565b7f4552433732313a207472616e7366657220746f206e6f6e20455243373231526560008201527f63656976657220696d706c656d656e7465720000000000000000000000000000602082015250565b6000612d9a603283611e98565b9150612da582612d3e565b604082019050919050565b60006020820190508181036000830152612dc981612d8d565b9050919050565b7f4552433732313a206d696e7420746f20746865207a65726f2061646472657373600082015250565b6000612e06602083611e98565b9150612e1182612dd0565b602082019050919050565b60006020820190508181036000830152612e3581612df9565b9050919050565b7f4552433732313a20746f6b656e20616c7265616479206d696e74656400000000600082015250565b6000612e72601c83611e98565b9150612e7d82612e3c565b602082019050919050565b60006020820190508181036000830152612ea181612e65565b9050919050565b7f45524337323155524953746f726167653a2055524920736574206f66206e6f6e60008201527f6578697374656e7420746f6b656e000000000000000000000000000000000000602082015250565b6000612f04602e83611e98565b9150612f0f82612ea8565b604082019050919050565b60006020820190508181036000830152612f3381612ef7565b9050919050565b600081519050919050565b600082825260208201905092915050565b6000612f6182612f3a565b612f6b8185612f45565b9350612f7b818560208601611ea9565b612f8481611ed3565b840191505092915050565b6000608082019050612fa46000830187611fd4565b612fb16020830186611fd4565b612fbe604083018561206a565b8181036060830152612fd08184612f56565b905095945050505050565b600081519050612fea81611dfe565b92915050565b60006020828403121561300657613005611dc8565b5b600061301484828501612fdb565b91505092915050565b7f4e487b7100000000000000000000000000000000000000000000000000000000600052601260045260246000fdfea26469706673582212209b82ff422494b80d3a43c228d8735ef5930a0a79d5345f08c4f42518f8ae876264736f6c63430008140033",
  "linkReferences": {},
  "deployedLinkReferences": {}
}