{
    "_format": "hh-sol-artifact-1",
    "contractName": "NFTMarketplace",
    "sourceName": "contracts/NFTMarketplace.sol",
    "abi": [
        {
            "anonymous": false,
            "inputs": [
                {
                    "indexed": true,
                    "internalType": "address",
                    "name": "seller",
                    "type": "address"
                },
                {
                    "indexed": true,
                    "internalType": "address",
                    "name": "nftAddress",
                    "type": "address"
                },
                {
                    "indexed": true,
                    "internalType": "uint256",
                    "name": "tokenId",
                    "type": "uint256"
                }
            ],
            "name": "Cancelled",
            "type": "event"
        },
        {
            "anonymous": false,
            "inputs": [
                {
                    "indexed": true,
                    "internalType": "address",
                    "name": "seller",
                    "type": "address"
                },
                {
                    "indexed": true,
                    "internalType": "address",
                    "name": "nftAddress",
                    "type": "address"
                },
                {
                    "indexed": true,
                    "internalType": "uint256",
                    "name": "tokenId",
                    "type": "uint256"
                },
                {
                    "indexed": false,
                    "internalType": "uint256",
                    "name": "price",
                    "type": "uint256"
                }
            ],
            "name": "Listed",
            "type": "event"
        },
        {
            "anonymous": false,
            "inputs": [
                {
                    "indexed": true,
                    "internalType": "address",
                    "name": "buyer",
                    "type": "address"
                },
                {
                    "indexed": true,
                    "internalType": "address",
                    "name": "nftAddress",
                    "type": "address"
                },
                {
                    "indexed": true,
                    "internalType": "uint256",
                    "name": "tokenId",
                    "type": "uint256"
                },
                {
                    "indexed": false,
                    "internalType": "uint256",
                    "name": "price",
                    "type": "uint256"
                }
            ],
            "name": "Sale",
            "type": "event"
        },
        {
            "inputs": [
                {
                    "internalType": "address",
                    "name": "nftAddress",
                    "type": "address"
                },
                {
                    "internalType": "uint256",
                    "name": "tokenId",
                    "type": "uint256"
                }
            ],
            "name": "buyNFT",
            "outputs": [],
            "stateMutability": "payable",
            "type": "function"
        },
        {
            "inputs": [
                {
                    "internalType": "address",
                    "name": "nftAddress",
                    "type": "address"
                },
                {
                    "internalType": "uint256",
                    "name": "tokenId",
                    "type": "uint256"
                }
            ],
            "name": "cancelListing",
            "outputs": [],
            "stateMutability": "nonpayable",
            "type": "function"
        },
        {
            "inputs": [
                {
                    "internalType": "address",
                    "name": "nftAddress",
                    "type": "address"
                },
                {
                    "internalType": "uint256",
                    "name": "tokenId",
                    "type": "uint256"
                },
                {
                    "internalType": "uint256",
                    "name": "price",
                    "type": "uint256"
                }
            ],
            "name": "listNFT",
            "outputs": [],
            "stateMutability": "nonpayable",
            "type": "function"
        },
        {
            "inputs": [
                {
                    "internalType": "address",
                    "name": "",
                    "type": "address"
                },
                {
                    "internalType": "uint256",
                    "name": "",
                    "type": "uint256"
                }
            ],
            "name": "listings",
            "outputs": [
                {
                    "internalType": "uint256",
                    "name": "price",
                    "type": "uint256"
                },
                {
                    "internalType": "address",
                    "name": "seller",
                    "type": "address"
                },
                {
                    "internalType": "address",
                    "name": "owner",
                    "type": "address"
                },
                {
                    "internalType": "bool",
                    "name": "active",
                    "type": "bool"
                }
            ],
            "stateMutability": "view",
            "type": "function"
        }
    ],
    "bytecode": "0x608060405234801561001057600080fd5b5060016000819055506110fd806100286000396000f3fe60806040526004361061003e5760003560e01c806207df3014610043578063a82ba76f14610083578063ad05f1b41461009f578063b2ddee06146100c8575b600080fd5b34801561004f57600080fd5b5061006a60048036038101906100659190610bb1565b6100f1565b60405161007a9493929190610c2a565b60405180910390f35b61009d60048036038101906100989190610bb1565b61017b565b005b3480156100ab57600080fd5b506100c660048036038101906100c19190610c6f565b610493565b005b3480156100d457600080fd5b506100ef60048036038101906100ea9190610bb1565b61089c565b005b6001602052816000526040600020602052806000526040600020600091509150508060000154908060010160009054906101000a900473ffffffffffffffffffffffffffffffffffffffff16908060020160009054906101000a900473ffffffffffffffffffffffffffffffffffffffff16908060020160149054906101000a900460ff16905084565b610183610abf565b6000600160008473ffffffffffffffffffffffffffffffffffffffff1673ffffffffffffffffffffffffffffffffffffffff168152602001908152602001600020600083815260200190815260200160002090503373ffffffffffffffffffffffffffffffffffffffff168160010160009054906101000a900473ffffffffffffffffffffffffffffffffffffffff1673ffffffffffffffffffffffffffffffffffffffff1603610269576040517f08c379a000000000000000000000000000000000000000000000000000000000815260040161026090610d1f565b60405180910390fd5b8060020160149054906101000a900460ff166102ba576040517f08c379a00000000000000000000000000000000000000000000000000000000081526004016102b190610d8b565b60405180910390fd5b8060000154341015610301576040517f08c379a00000000000000000000000000000000000000000000000000000000081526004016102f890610df7565b60405180910390fd5b60008160020160146101000a81548160ff0219169083151502179055508273ffffffffffffffffffffffffffffffffffffffff166323b872dd8260020160009054906101000a900473ffffffffffffffffffffffffffffffffffffffff1633856040518463ffffffff1660e01b815260040161037f93929190610e17565b600060405180830381600087803b15801561039957600080fd5b505af11580156103ad573d6000803e3d6000fd5b505050508060010160009054906101000a900473ffffffffffffffffffffffffffffffffffffffff1673ffffffffffffffffffffffffffffffffffffffff166108fc349081150290604051600060405180830381858888f1935050505015801561041b573d6000803e3d6000fd5b50818373ffffffffffffffffffffffffffffffffffffffff163373ffffffffffffffffffffffffffffffffffffffff167f681ddc67ea8796d2489979f5fc2ea2eb0f2d44ff3f11f061a191928a1f3d9a06846000015460405161047e9190610e4e565b60405180910390a45061048f610b0e565b5050565b60008390503373ffffffffffffffffffffffffffffffffffffffff168173ffffffffffffffffffffffffffffffffffffffff16636352211e856040518263ffffffff1660e01b81526004016104e89190610e4e565b602060405180830381865afa158015610505573d6000803e3d6000fd5b505050506040513d601f19601f820116820180604052508101906105299190610e7e565b73ffffffffffffffffffffffffffffffffffffffff161461057f576040517f08c379a000000000000000000000000000000000000000000000000000000000815260040161057690610ef7565b60405180910390fd5b3073ffffffffffffffffffffffffffffffffffffffff168173ffffffffffffffffffffffffffffffffffffffff1663081812fc856040518263ffffffff1660e01b81526004016105cf9190610e4e565b602060405180830381865afa1580156105ec573d6000803e3d6000fd5b505050506040513d601f19601f820116820180604052508101906106109190610e7e565b73ffffffffffffffffffffffffffffffffffffffff1614610666576040517f08c379a000000000000000000000000000000000000000000000000000000000815260040161065d90610f63565b60405180910390fd5b60405180608001604052808381526020013373ffffffffffffffffffffffffffffffffffffffff1681526020013073ffffffffffffffffffffffffffffffffffffffff16815260200160011515815250600160008673ffffffffffffffffffffffffffffffffffffffff1673ffffffffffffffffffffffffffffffffffffffff16815260200190815260200160002060008581526020019081526020016000206000820151816000015560208201518160010160006101000a81548173ffffffffffffffffffffffffffffffffffffffff021916908373ffffffffffffffffffffffffffffffffffffffff16021790555060408201518160020160006101000a81548173ffffffffffffffffffffffffffffffffffffffff021916908373ffffffffffffffffffffffffffffffffffffffff16021790555060608201518160020160146101000a81548160ff0219169083151502179055509050508373ffffffffffffffffffffffffffffffffffffffff166323b872dd3330866040518463ffffffff1660e01b81526004016107fe93929190610e17565b600060405180830381600087803b15801561081857600080fd5b505af115801561082c573d6000803e3d6000fd5b50505050828473ffffffffffffffffffffffffffffffffffffffff163373ffffffffffffffffffffffffffffffffffffffff167fd9d69fee247951cc283dc6f5b64c36ce396a36146405a798b86ebfd113c8b5ca8560405161088e9190610e4e565b60405180910390a450505050565b6000600160008473ffffffffffffffffffffffffffffffffffffffff1673ffffffffffffffffffffffffffffffffffffffff168152602001908152602001600020600083815260200190815260200160002090503373ffffffffffffffffffffffffffffffffffffffff168160010160009054906101000a900473ffffffffffffffffffffffffffffffffffffffff1673ffffffffffffffffffffffffffffffffffffffff1614610982576040517f08c379a000000000000000000000000000000000000000000000000000000000815260040161097990610fcf565b60405180910390fd5b8060020160149054906101000a900460ff166109d3576040517f08c379a00000000000000000000000000000000000000000000000000000000081526004016109ca9061103b565b60405180910390fd5b60008160020160146101000a81548160ff0219169083151502179055508273ffffffffffffffffffffffffffffffffffffffff166323b872dd3033856040518463ffffffff1660e01b8152600401610a2d93929190610e17565b600060405180830381600087803b158015610a4757600080fd5b505af1158015610a5b573d6000803e3d6000fd5b50505050818373ffffffffffffffffffffffffffffffffffffffff163373ffffffffffffffffffffffffffffffffffffffff167f915fb8c652d6245752cc491b71bd8e87ab6761417f8d2ca353c8055103294c0360405160405180910390a4505050565b600260005403610b04576040517f08c379a0000000000000000000000000000000000000000000000000000000008152600401610afb906110a7565b60405180910390fd5b6002600081905550565b6001600081905550565b600080fd5b600073ffffffffffffffffffffffffffffffffffffffff82169050919050565b6000610b4882610b1d565b9050919050565b610b5881610b3d565b8114610b6357600080fd5b50565b600081359050610b7581610b4f565b92915050565b6000819050919050565b610b8e81610b7b565b8114610b9957600080fd5b50565b600081359050610bab81610b85565b92915050565b60008060408385031215610bc857610bc7610b18565b5b6000610bd685828601610b66565b9250506020610be785828601610b9c565b9150509250929050565b610bfa81610b7b565b82525050565b610c0981610b3d565b82525050565b60008115159050919050565b610c2481610c0f565b82525050565b6000608082019050610c3f6000830187610bf1565b610c4c6020830186610c00565b610c596040830185610c00565b610c666060830184610c1b565b95945050505050565b600080600060608486031215610c8857610c87610b18565b5b6000610c9686828701610b66565b9350506020610ca786828701610b9c565b9250506040610cb886828701610b9c565b9150509250925092565b600082825260208201905092915050565b7f596f7520617265206f776e657200000000000000000000000000000000000000600082015250565b6000610d09600d83610cc2565b9150610d1482610cd3565b602082019050919050565b60006020820190508181036000830152610d3881610cfc565b9050919050565b7f4e4654206e6f74206c6973746564000000000000000000000000000000000000600082015250565b6000610d75600e83610cc2565b9150610d8082610d3f565b602082019050919050565b60006020820190508181036000830152610da481610d68565b9050919050565b7f496e73756666696369656e742066756e64730000000000000000000000000000600082015250565b6000610de1601283610cc2565b9150610dec82610dab565b602082019050919050565b60006020820190508181036000830152610e1081610dd4565b9050919050565b6000606082019050610e2c6000830186610c00565b610e396020830185610c00565b610e466040830184610bf1565b949350505050565b6000602082019050610e636000830184610bf1565b92915050565b600081519050610e7881610b4f565b92915050565b600060208284031215610e9457610e93610b18565b5b6000610ea284828501610e69565b91505092915050565b7f4e6f7420746865206f776e657200000000000000000000000000000000000000600082015250565b6000610ee1600d83610cc2565b9150610eec82610eab565b602082019050919050565b60006020820190508181036000830152610f1081610ed4565b9050919050565b7f4d61726b6574706c616365206e6f7420617070726f7665640000000000000000600082015250565b6000610f4d601883610cc2565b9150610f5882610f17565b602082019050919050565b60006020820190508181036000830152610f7c81610f40565b9050919050565b7f4e6f74207468652073656c6c6572000000000000000000000000000000000000600082015250565b6000610fb9600e83610cc2565b9150610fc482610f83565b602082019050919050565b60006020820190508181036000830152610fe881610fac565b9050919050565b7f4c697374696e67206e6f74206163746976650000000000000000000000000000600082015250565b6000611025601283610cc2565b915061103082610fef565b602082019050919050565b6000602082019050818103600083015261105481611018565b9050919050565b7f5265656e7472616e637947756172643a207265656e7472616e742063616c6c00600082015250565b6000611091601f83610cc2565b915061109c8261105b565b602082019050919050565b600060208201905081810360008301526110c081611084565b905091905056fea264697066735822122027feff84169bd78d44933832c48e75bef233bb6374cec2ca02d10f52d90133cf64736f6c63430008140033",
    "linkReferences": {},
    "deployedLinkReferences": {}
}